{
  "_format": "hh-sol-artifact-1",
  "contractName": "IdeaRegistry",
  "sourceName": "contracts/IdeaRegistry.sol",
  "abi": [
    {
      "anonymous": false,
      "inputs": [
        {
          "indexed": true,
          "internalType": "uint256",
          "name": "ideaId",
          "type": "uint256"
        },
        {
          "indexed": true,
          "internalType": "address",
          "name": "accessor",
          "type": "address"
        },
        {
          "indexed": false,
          "internalType": "uint256",
          "name": "timestamp",
          "type": "uint256"
        }
      ],
      "name": "IdeaAccessed",
      "type": "event"
    },
    {
      "anonymous": false,
      "inputs": [
        {
          "indexed": true,
          "internalType": "uint256",
          "name": "ideaId",
          "type": "uint256"
        },
        {
          "indexed": true,
          "internalType": "address",
          "name": "owner",
          "type": "address"
        },
        {
          "indexed": false,
          "internalType": "string",
          "name": "metadataHash",
          "type": "string"
        },
        {
          "indexed": false,
          "internalType": "uint256",
          "name": "timestamp",
          "type": "uint256"
        },
        {
          "indexed": false,
          "internalType": "bool",
          "name": "isPrivate",
          "type": "bool"
        }
      ],
      "name": "IdeaRegistered",
      "type": "event"
    },
    {
      "inputs": [
        {
          "internalType": "uint256",
          "name": "_ideaId",
          "type": "uint256"
        }
      ],
      "name": "getIdeaDetails",
      "outputs": [
        {
          "components": [
            {
              "internalType": "uint256",
              "name": "id",
              "type": "uint256"
            },
            {
              "internalType": "address",
              "name": "owner",
              "type": "address"
            },
            {
              "internalType": "string",
              "name": "metadataHash",
              "type": "string"
            },
            {
              "internalType": "uint256",
              "name": "timestamp",
              "type": "uint256"
            },
            {
              "internalType": "bool",
              "name": "isPrivate",
              "type": "bool"
            },
            {
              "internalType": "string",
              "name": "accessHash",
              "type": "string"
            },
            {
              "internalType": "bool",
              "name": "exists",
              "type": "bool"
            }
          ],
          "internalType": "struct IdeaRegistry.Idea",
          "name": "",
          "type": "tuple"
        }
      ],
      "stateMutability": "view",
      "type": "function"
    },
    {
      "inputs": [],
      "name": "getMyIdeas",
      "outputs": [
        {
          "internalType": "uint256[]",
          "name": "",
          "type": "uint256[]"
        }
      ],
      "stateMutability": "view",
      "type": "function"
    },
    {
      "inputs": [
        {
          "internalType": "uint256",
          "name": "_offset",
          "type": "uint256"
        },
        {
          "internalType": "uint256",
          "name": "_limit",
          "type": "uint256"
        }
      ],
      "name": "getPublicIdeas",
      "outputs": [
        {
          "components": [
            {
              "internalType": "uint256",
              "name": "id",
              "type": "uint256"
            },
            {
              "internalType": "address",
              "name": "owner",
              "type": "address"
            },
            {
              "internalType": "string",
              "name": "metadataHash",
              "type": "string"
            },
            {
              "internalType": "uint256",
              "name": "timestamp",
              "type": "uint256"
            }
          ],
          "internalType": "struct IdeaRegistry.PublicIdea[]",
          "name": "",
          "type": "tuple[]"
        }
      ],
      "stateMutability": "view",
      "type": "function"
    },
    {
      "inputs": [],
      "name": "getTotalPublicIdeas",
      "outputs": [
        {
          "internalType": "uint256",
          "name": "",
          "type": "uint256"
        }
      ],
      "stateMutability": "view",
      "type": "function"
    },
    {
      "inputs": [
        {
          "internalType": "string",
          "name": "_metadataHash",
          "type": "string"
        },
        {
          "internalType": "bool",
          "name": "_isPrivate",
          "type": "bool"
        },
        {
          "internalType": "string",
          "name": "_accessHash",
          "type": "string"
        }
      ],
      "name": "registerIdea",
      "outputs": [
        {
          "internalType": "uint256",
          "name": "",
          "type": "uint256"
        }
      ],
      "stateMutability": "nonpayable",
      "type": "function"
    },
    {
      "inputs": [],
      "name": "totalIdeas",
      "outputs": [
        {
          "internalType": "uint256",
          "name": "",
          "type": "uint256"
        }
      ],
      "stateMutability": "view",
      "type": "function"
    },
    {
      "inputs": [
        {
          "internalType": "uint256",
          "name": "_ideaId",
          "type": "uint256"
        },
        {
          "internalType": "address",
          "name": "_owner",
          "type": "address"
        }
      ],
      "name": "verifyIdeaOwnership",
      "outputs": [
        {
          "internalType": "bool",
          "name": "",
          "type": "bool"
        }
      ],
      "stateMutability": "view",
      "type": "function"
    }
  ],
  "bytecode": "0x60806040526001600355600060045534801561001a57600080fd5b5061106d8061002a6000396000f3fe608060405234801561001057600080fd5b506004361061007c5760003560e01c80630905fb741161005b5780630905fb74146100e257806338a93ba01461010357806378f7ecb71461010c5780639e1784271461012c57600080fd5b8062b4116514610081578063011d07c0146100aa57806304ece142146100bf575b600080fd5b61009461008f366004610b0f565b610134565b6040516100a19190610b78565b60405180910390f35b6100b26103fd565b6040516100a19190610bfd565b6100d26100cd366004610c41565b61045e565b60405190151581526020016100a1565b6100f56100f0366004610d20565b6104dd565b6040519081526020016100a1565b6100f560045481565b61011f61011a366004610d9d565b61074f565b6040516100a19190610dbf565b6100f5610aa7565b6101816040518060e001604052806000815260200160006001600160a01b031681526020016060815260200160008152602001600015158152602001606081526020016000151581525090565b600082815260208190526040902060060154829060ff166101df5760405162461bcd60e51b81526020600482015260136024820152721259195848191bd95cc81b9bdd08195e1a5cdd606a1b60448201526064015b60405180910390fd5b600083815260208181526040808320815160e0810183528154815260018201546001600160a01b031693810193909352600281018054919284019161022390610e56565b80601f016020809104026020016040519081016040528092919081815260200182805461024f90610e56565b801561029c5780601f106102715761010080835404028352916020019161029c565b820191906000526020600020905b81548152906001019060200180831161027f57829003601f168201915b505050918352505060038201546020820152600482015460ff16151560408201526005820180546060909201916102d290610e56565b80601f01602080910402602001604051908101604052809291908181526020018280546102fe90610e56565b801561034b5780601f106103205761010080835404028352916020019161034b565b820191906000526020600020905b81548152906001019060200180831161032e57829003601f168201915b50505091835250506006919091015460ff16151560209091015260808101519091508015610386575060208101516001600160a01b03163314155b156103f4576040518060e001604052808260000151815260200182602001516001600160a01b03168152602001604051806020016040528060008152508152602001826060015181526020016001151581526020018260a001518152602001600115158152509250506103f7565b91505b50919050565b3360009081526001602090815260409182902080548351818402810184019094528084526060939283018282801561045457602002820191906000526020600020905b815481526020019060010190808311610440575b5050505050905090565b600082815260208190526040812060060154839060ff166104b75760405162461bcd60e51b81526020600482015260136024820152721259195848191bd95cc81b9bdd08195e1a5cdd606a1b60448201526064016101d6565b5050600091825260208290526040909120600101546001600160a01b0391821691161490565b60008084511161052f5760405162461bcd60e51b815260206004820152601d60248201527f4d6574616461746120686173682063616e6e6f7420626520656d70747900000060448201526064016101d6565b60028460405161053f9190610e8a565b9081526040519081900360200190205460ff16156105ad5760405162461bcd60e51b815260206004820152602560248201527f496465612077697468207468697320636f6e74656e7420616c72656164792065604482015264786973747360d81b60648201526084016101d6565b60038054600091826105be83610ebc565b909155506040805160e0810182528281523360208083019182528284018a8152426060850152891515608085015260a08401899052600160c085018190526000878152928390529490912083518155915193820180546001600160a01b0319166001600160a01b039095169490941790935591519293509160028201906106459082610f24565b5060608201516003820155608082015160048201805460ff191691151591909117905560a0820151600582019061067c9082610f24565b5060c091909101516006909101805460ff191691151591909117905533600090815260016020818152604080842080548085018255908552919093200183905590516002906106cc908890610e8a565b908152604051908190036020019020805491151560ff19909216919091179055600480549060006106fc83610ebc565b9190505550336001600160a01b0316817fd212de2e78d4fa5f3f83212ef6a41bbe8f1c6b7bfcdb0aac24b779e59229319c87428860405161073f93929190610fe4565b60405180910390a3949350505050565b6060600082118015610762575060648211155b61079e5760405162461bcd60e51b815260206004820152600d60248201526c125b9d985b1a59081b1a5b5a5d609a1b60448201526064016101d6565b600060015b6003548110156108055760008181526020819052604090206006015460ff1680156107e0575060008181526020819052604090206004015460ff16155b156107f357816107ef81610ebc565b9250505b806107fd81610ebc565b9150506107a3565b5080841061087357604080516000808252602082019092529061086a565b61085760405180608001604052806000815260200160006001600160a01b0316815260200160608152602001600081525090565b8152602001906001900390816108235790505b50915050610aa1565b600061087f858361100e565b90508381111561088c5750825b60008167ffffffffffffffff8111156108a7576108a7610c7d565b60405190808252806020026020018201604052801561090c57816020015b6108f960405180608001604052806000815260200160006001600160a01b0316815260200160608152602001600081525090565b8152602001906001900390816108c55790505b50905060008060015b6003548110801561092557508483105b15610a985760008181526020819052604090206006015460ff16801561095d575060008181526020819052604090206004015460ff16155b15610a8657888210610a785760408051608081018252600083815260208181528382208054845260018101546001600160a01b031682850152858352919052600201805491928301916109af90610e56565b80601f01602080910402602001604051908101604052809291908181526020018280546109db90610e56565b8015610a285780601f106109fd57610100808354040283529160200191610a28565b820191906000526020600020905b815481529060010190602001808311610a0b57829003601f168201915b5050509183525050600083815260208181526040909120600301549101528451859085908110610a5a57610a5a611021565b60200260200101819052508280610a7090610ebc565b935050610a86565b81610a8281610ebc565b9250505b80610a9081610ebc565b915050610915565b50919450505050505b92915050565b60008060015b6003548110156103f75760008181526020819052604090206006015460ff168015610aea575060008181526020819052604090206004015460ff16155b15610afd5781610af981610ebc565b9250505b80610b0781610ebc565b915050610aad565b600060208284031215610b2157600080fd5b5035919050565b60005b83811015610b43578181015183820152602001610b2b565b50506000910152565b60008151808452610b64816020860160208601610b28565b601f01601f19169290920160200192915050565b602081528151602082015260018060a01b0360208301511660408201526000604083015160e06060840152610bb1610100840182610b4c565b9050606084015160808401526080840151151560a084015260a0840151601f198483030160c0850152610be48282610b4c565b91505060c0840151151560e08401528091505092915050565b6020808252825182820181905260009190848201906040850190845b81811015610c3557835183529284019291840191600101610c19565b50909695505050505050565b60008060408385031215610c5457600080fd5b8235915060208301356001600160a01b0381168114610c7257600080fd5b809150509250929050565b634e487b7160e01b600052604160045260246000fd5b600082601f830112610ca457600080fd5b813567ffffffffffffffff80821115610cbf57610cbf610c7d565b604051601f8301601f19908116603f01168101908282118183101715610ce757610ce7610c7d565b81604052838152866020858801011115610d0057600080fd5b836020870160208301376000602085830101528094505050505092915050565b600080600060608486031215610d3557600080fd5b833567ffffffffffffffff80821115610d4d57600080fd5b610d5987838801610c93565b9450602086013591508115158214610d7057600080fd5b90925060408501359080821115610d8657600080fd5b50610d9386828701610c93565b9150509250925092565b60008060408385031215610db057600080fd5b50508035926020909101359150565b60006020808301818452808551808352604092508286019150828160051b87010184880160005b83811015610e4857888303603f19018552815180518452878101516001600160a01b03168885015286810151608088860181905290610e2782870182610b4c565b60609384015196909301959095525094870194925090860190600101610de6565b509098975050505050505050565b600181811c90821680610e6a57607f821691505b6020821081036103f757634e487b7160e01b600052602260045260246000fd5b60008251610e9c818460208701610b28565b9190910192915050565b634e487b7160e01b600052601160045260246000fd5b600060018201610ece57610ece610ea6565b5060010190565b601f821115610f1f57600081815260208120601f850160051c81016020861015610efc5750805b601f850160051c820191505b81811015610f1b57828155600101610f08565b5050505b505050565b815167ffffffffffffffff811115610f3e57610f3e610c7d565b610f5281610f4c8454610e56565b84610ed5565b602080601f831160018114610f875760008415610f6f5750858301515b600019600386901b1c1916600185901b178555610f1b565b600085815260208120601f198616915b82811015610fb657888601518255948401946001909101908401610f97565b5085821015610fd45787850151600019600388901b60f8161c191681555b5050505050600190811b01905550565b606081526000610ff76060830186610b4c565b602083019490945250901515604090910152919050565b81810381811115610aa157610aa1610ea6565b634e487b7160e01b600052603260045260246000fdfea26469706673582212202d5e53774ab3c90494cd26701c7e08009bc63f049b15aae5dd3121fe124a3c3964736f6c63430008130033",
  "linkReferences": {},
  "deployedLinkReferences": {}
}